:020000022000DC
:1060000080FF00206D0E0500990E0500350203008B
:10601000950E0500A10E0500A50E0500000000006C
:10602000000000000000000000000000DD89020008
:10603000AD0E050000000000FD8902009D0E050068
:1060400005680400B50E0500819F040061D70400B7
:1060500071D70400B50E0500D965040075990400D8
:10606000B50E0500B50E0500B50E0500B50E050010
:10607000B50E0500B50E0500B50E0500B50E050000
:10608000B50B030075880200B50E0500B50E0500BE
:10609000B50E0500B50E05003D1F0300B50E050049
:1060A000B50E0500B50E0500B50E0500B50E0500D0
:1060B000B50E0500B50E0500000000000000000050
:1060C000B50E0500B50E0500B50E0500F97B040000
:1060D000B50E0500B50E05001D020300000000000E
:1060E00000000000000000000000000000000000B0
:1060F00000000000000000000000000000000000A0
:10610000000000000000000000000000000000008F
:10611000000000000000000000000000000000007F
:10612000000000000000000000000000000000006F
:10613000000000000000000000000000000000005F
:10614000000000000000000000000000000000004F
:10615000000000000000000000000000000000003F
:10616000000000000000000000000000000000002F
:10617000000000000000000000000000000000001F
:10618000000000000000000000000000000000000F
:1061900000000000000000000000000000000000FF
:1061A00000000000000000000000000000000000EF
:1061B00000000000000000000000000000000000DF
:1061C00000000000000000000000000000000000CF
:1061D00000000000000000000000000000000000BF
:1061E00000000000000000000000000000000000AF
:1061F000000000000000000000000000000000009F
:106200000348044B834202D0034B03B11847704745
:10621000E82C0020E82C0020000000000548064B78
:106220001B1AD90F01EBA301491002D0034B03B194
:1062300018477047E82C0020E82C002000000000E0
:1062400010B5064C237843B9FFF7DAFF044B13B1BE
:106250000448AFF300800123237010BD002D0020FF
:10626000000000006C6B060008B5054B1BB105492A
:106270000548AFF30080BDE80840FFF7CFBF00BF7F
:1062800000000000042D00206C6B0600A3F5803A8E
:10629000704700BF174B002B08BF134B9D46FFF7FD
:1062A000F5FF00218B460F461348144A121A2DF0B1
:1062B0000FFC0E4B002B00D098470D4B002B00D04D
:1062C00098470020002104000D000D48002802D04E
:1062D0000C482DF058F92CF0DBFD2000290003F0CC
:1062E000B3FF2CF015FD00BF000008000000000007
:1062F0000000000080FF0020002D00206CF900202D
:10630000873505000000000030B5114B1A461B68A8
:106310008342FBD3546841681519A84206D1214431
:1063200050188342516010D1104602E04418A34235
:106330000CD1084C2468A3421FBF5C6864184460F9
:106340001C680460824218BF106030BD0360F9E72A
:1063500074EB002084EB0020407970470223037423
:106360000120704702230372012070470323037446
:106370007047032303727047D0E90123C16802EB21
:1063800061001847D0E90123C16802EB610018479A
:106390004FF6FF73994208D04068B0F854308B42F2
:1063A00003D9C368194408447047002070474FF66A
:1063B000FF73994210B51AD04068CCB2B0F8623081
:1063C000090A0131994212D2826A024402EB410366
:1063D00032F8112033F8023CD21A944207DA426AAA
:1063E00023449BB2062101FB0322104410BD002070
:1063F000FCE74FF6FF7399420AD04068B0F8583076
:106400008B4205D94369062202FB013318447047C9
:10641000002070474FF6FF73994209D04068B0F8EA
:106420005A308B4204D9836903EB41031844704707
:106430000020704710B54FF6FF74A2422DD04B6874
:10644000B3F85C108A4210D2D96901EB42010B44C7
:106450000122C0E90023023B33F8022FA24200D1FF
:1064600010BD026802320260F6E7521AB3F85E10FD
:1064700092B2914211D9196A01EBC2010B44002278
:10648000C0E90023083333F8082CA24203F10803C3
:10649000E6D0026802320260F5E70023C0E900336B
:1064A000DEE770B455680023AB420CD108230468C2
:1064B000072B97BF64692369013302EBC30298BFBE
:1064C000234670BC18475C1C32F834600D2EEED0A9
:1064D0002346E9E770477047704770477047704739
:1064E0007047704770477047C268416810B40346F0
:1064F000541001EB6200D20748BF0A599B685DF84F
:10650000044B48BFD3581847F0B5EFF3058117483F
:10651000174A184B99B1D0F804051168814207D980
:10652000D3E9004514F1807645F10007C3E900671F
:106530001060D3E90023801843F10001F0BDEFF3B0
:106540001081C9B272B6D0F804051468844207D924
:10655000D3E9004514F1807645F10007C3E90067EF
:1065600010600029E5D162B6E3E700BF00100140EA
:10657000983D0020903D002038B5FFF7C5FF4FF44F
:106580007A72A0FB020302FB0131164BD3E9002310
:10659000800A40EA8150801843EB9121124B8342DC
:1065A0004FF4B0738B411BD2104AD2E9003413F57B
:1065B000FA7344F1000483428C4111D2C2E9000114
:1065C0000D460246082400235340013C4FEA1222A4
:1065D00042EA0562DBB24FEA1525F5D1044A137091
:1065E00038BD00BF803D0020009004AF88FF002030
:1065F00080FF0020037813F0040215D003F003039A
:10660000012B03D0022B09D0012070470B680288B0
:106610000233C2F3831213440B60F5E70B68428820
:10662000023303EB9213F7E7104670474FF07043C5
:1066300093F8E02F062A10D1D3F8E42F12070CD1DB
:10664000D3F8E80F00F0F003302B08D000F0E000A2
:10665000A0F1400358425841704700207047012084
:1066600070474FF0704393F8E02F062A0CD1D3F80F
:10667000E42F120708D1D3F8E80F00F0F000A0F1E2
:1066800030035842584170470020704741DF70473F
:106690000223037401207047022303720120704714
:1066A00003230374704703230372704770477047D6
:1066B0000346406899680268926810474368084634
:1066C00018477047064B074A1A60074A5A60074A3C
:1066D0009A60074ADA60074B01221A60704700BFD0
:1066E000DC2E0020605F0500665F05006E5F050020
:1066F0007A5F0500F02E0020C3685B68586A704717
:106700007047C268416810B40346541001EB620040
:10671000D20748BF0A599B685DF8044B48BFD3585D
:106720001847022303720120704703230372704746
:1067300002230372012070470323037270477047DE
:10674000C268416810B40346541001EB6200D207DE
:1067500048BF0A599B685DF8044B48BFD358184797
:10676000F0B4C56846686F10044606EB6500ED0797
:10677000A46844BFF5592C59A446F0BC60470223D5
:1067800003720120704703230372704710B5034B57
:106790000360044628F080FE204610BDB479050051
:1067A00010B5034B0360044628F076FE204610BD6A
:1067B0007471050010B504462CF08EFA204610BD09
:1067C00010B504462CF088FA204610BD10B50446DA
:1067D0002CF082FA204610BD10B504462CF07CFA4D
:1067E000204610BD10B50446FFF7D0FF20462CF020
:1067F00073FA204610BD10B50446FFF7D1FF2046BE
:106800002CF06AFA204610BD0BF0E6BB10B504462A
:1068100000682379DB0708D503689B689847A07157
:1068200018B9237923F0020323712379990704D53A
:10683000206803681B699847A07123795A0705D51A
:10684000206803685B6998470123A37123791B07BC
:1068500005D520680368DB6898470123A3710123ED
:10686000637123685B7A5BB10BF0B6FB0021C069F2
:1068700028F093FA20B1BDE810400C3027F038BD65
:1068800010BD0000F0B51B4B036089B005460BF04E
:10689000A3FB04464069EE8808F080FE636A1BB3E0
:1068A000E16A684628F04EFA4FF6FF77684607F02F
:1068B000BBFCB84213D005AA02A9684607F041FD07
:1068C000C82808D1BDF81C30B34204D10A484FF49F
:1068D0000C7127F0BBFA684628F017FAE6E7606B00
:1068E0003146083008F0E8F8606908F063FE284691
:1068F00009B0F0BD5C8305008A5F050010B5044651
:10690000FFF7C0FF20462CF0E7F9204610BD00003D
:1069100010B5064B03604C33044640F8083F28F09E
:10692000BBFD2046FFF7AEFF204610BD14820500D8
:10693000A0F10800FFF7ECBF10B50446FFF7E8FF31
:1069400020462CF0C9F9204610BDA0F10800FFF741
:10695000F3BF0000024B40F2F51228F023BC00BF49
:10696000E43E0020014BC82228F01CBCE43E00207D
:10697000F8B5D0E9014527F081F900210846012248
:106980002AF06CFF2846A0472AF07AFC0021032257
:1069900008462AF063FF2AF04FFD2AF079FF164BD4
:1069A000164D0646002418462A7894421CD253F805
:1069B000042BB24204F101071BD12A78A300191D50
:1069C000D21B0144920018442DF068F82A780C4834
:1069D0006400D21BA11C0144520020442DF05EF83B
:1069E0002B78013BDBB22B703046BDE8F8402AF033
:1069F000B1BB3C46D8E700BFBC3E0020B83E0020FB
:106A0000A43E00207FB503AE01969DF8206000965D
:106A10000024154603942AF0BDFA012812D10A4A2F
:106A200003981378092B0BD8117813780133DBB254
:106A3000C9B21370054B43F82100054B23F81150E0
:106A400004B070BD2046FBE7B83E0020BC3E0020ED
:106A5000A43E0020194B1B68002213B51A6090F861
:106A6000CC3B0C4633B10B7815488DF8043001A9A6
:106A700025F0DCFE237813488DF8043001A925F0B9
:106A8000D5FE237810488DF8043001A925F0CEFEFC
:106A90000E4B1B68DB0701D4FFF714FE23780C486C
:106AA0008DF8043001A925F0C1FE237809488DF83E
:106AB000043001A925F0BAFE02B010BD68310020F3
:106AC00070EC0020682F0020F42E0020F02E002013
:106AD000DC2E0020102F00202DE9F84F04469946A7
:106AE00094F842300846591C84F8421094F840103B
:106AF000994237D894F84170012F33D8D6B2142573
:106B00007040C0B205FB07450F28C2F30F438CBF8E
:106B100000200120AB8312F47F4F4FF001034FEAB6
:106B2000124885F82A3085F82B001DD01A4AAA6130
:106B30006B8559F804BF00255D4594F841801DD14F
:106B4000142202FB074304EB081244325A62F64354
:106B50000122164090441D8483F8282083F8296080
:106B600084F84180BDE8F88F0BF036FA414607F013
:106B70001BFA0028DDD0094BAB61DAE705F1010A09
:106B800005EB880559F83A0028F02DFC04EB850543
:106B900068645546D0E700BF90700500B5610500F8
:106BA00010B5074C20461DF0DDFEA4F108001DF0D5
:106BB000C5FEA4F11000BDE810401DF097BE00BF57
:106BC000B82E002010B5054C20461DF07BFEA4F128
:106BD0000800BDE810401DF09DBE00BF9C2E0020A7
:106BE00020F00203C82B04D0A0F16403584258419E
:106BF000704701207047000008B503888B4203D816
:106C000004485E2127F022F943680C2000FB013084
:106C100008BD00BF995F050040F20173984216D08D
:106C20000ED840F21113984213D0B0F5E06F10D097
:106C300040F2091398420CBF08204FF0FF30704714
:106C4000B0F5785F0CBF08204FF0FF3070470C2084
:106C500070470820704700002DE9F04104462AF0F3
:106C60000FFB3A493A4D0B68FBB93A4A56071CBF2D
:106C70000732394B394E1ABF22F007029B1A4AF6E7
:106C800080431344083B23F0070300207060326008
:106C9000C3E90000981AC2E900300B60304B18605D
:106CA000304B18604FF000432B602F68274205D00F
:106CB0002AF0C2FB00263046BDE8F081002CF7D058
:106CC00004F1080360071CBF23F007030833002BFF
:106CD000EED0DFF89080D8F800509D42E8D31F4AEC
:106CE00014686068984201D226688EB90968A1428A
:106CF000DED0216816681160C21A102A06F1080653
:106D00000DD9E018410706D0C821174827F09EF892
:106D100022463446E5E742606360FFF7F5FA104922
:106D200062680868AD1A85424FF0000347EA02071F
:106D300038BF0D60C8F80050676023602AF07CFB04
:106D40007307B8D04FF48471DFE700BF84EB0020F5
:106D500080EB0020F03E002070EB002074EB002060
:106D600070EB00207CEB0020AC5F050038B5154BC4
:106D7000154A1A60154B164A1A60164B164A1A60C5
:106D80004820FFF769FF154B154D1D600446002193
:106D900027F0FAFA002104F1080027F0B3FA0022E4
:106DA000294604F12C0028F09DFB0E4B236003F1D3
:106DB00050029433E3620023A26084F83C306364A1
:106DC00038BD00BFBC2B0020BD5F0500B82B0020E4
:106DD000CB5F0500B42B0020D15F050070EC0020D4
:106DE000DD5F05001084050038B5044628B3134A5A
:106DF00050F8043C12681342A0F1080504D14FF486
:106E00008E710F4827F022F850F8081C11B140F29B
:106E10001D11F6E723EA020340F8043C2AF030FA99
:106E2000084A54F8043C116828460B441360FFF7E5
:106E30006BFABDE838402AF0FFBA38BD80EB00207D
:106E4000AC5F05007CEB00200B78007A032B22D886
:106E5000DFE803F002080F1610F0FB0F0CBF012053
:106E600000207047012818D0052818D8104B185C4E
:106E70007047022815D0431F584258418000704780
:106E800000F0FD03012B0ED002280ED0052814BF00
:106E900000200C207047FF20704702207047002020
:106EA000704704207047082070470C20704700BFCF
:106EB00090830500124B37B5024603604C3342F80D
:106EC000083F104B1D689542044601D1EB681BB189
:106ED0000D48642126F0BAFF032301A928468DF846
:106EE0000430FFF7B1FF0146284627F06DFF284622
:106EF00028F0D2FA2046FFF7C5FC204603B030BD8B
:106F0000A0830500EC3E0020EC5F0500A0F1080026
:106F1000FFF7D0BF10B50446FFF7CCFF20462BF09B
:106F2000DBFE204610BDA0F10800FFF7F3BF70475D
:106F3000704770474FF6FF7399420AD04068B0F827
:106F400064308B4205D9C36A062202FB0133184420
:106F50007047002070474FF6FF73994209D0406890
:106F6000B0F866308B4204D9036B03EB410318443D
:106F70007047002070474FF6FF73994209D0406870
:106F8000B0F868308B4204D9436B03EB810318449B
:106F90007047002070474FF6FF7399420AD040684F
:106FA000B0F86C308B4205D9C36B0C2202FB013365
:106FB00018447047002070474FF440310022C0E968
:106FC0000012704730B5837803F00C030C2B85B0AA
:106FD000044603D1AB21154826F038FF042B22D1FB
:106FE000C07806F09BFF05460AF0F6FF218803AA49
:106FF0002C3007F0F7F808B9B821ECE72B682846E1
:107000001B699847039A036800925D68626821884B
:107010000023A84760600028EED0A37823F01D036A
:1070200043F00903A370606805B030BD006005003F
:107030004379C28803F0F00343EA02407047F7B592
:10704000054617460C46A1B103689B68984706465B
:107050002846FFF7EDFF214603463A46304627F023
:1070600067FFADF806000DF1060028F099F803B0AF
:10707000F0BDC820FBE70A460121FFF7E0BF000092
:1070800010B504490446FFF7F6FF002384F83430B6
:1070900010BD00BF04840500A0F12C00FFF7F0BF75
:1070A00010B503490446FFF7E6FF0023237410BD23
:1070B00008820500A0F10800FFF7F2BF07B5ADF8A0
:1070C00006100DF106020121FFF7B9FF03B05DF8CC
:1070D00004FB10B54FF486710446FFF7EFFF002361
:1070E000237410BDA0F10800FFF7F3BFF8B5044604
:1070F000224A0F211030FFF7A2FF656B294604F1E9
:10710000300051F8542F002393421AD051F8047FD5
:10711000B84203F101062FD103F113008000013AB8
:10712000D21A05F10C06011D9200314430442CF0B6
:10713000B5FC6B6D5A1E113305EB83036A650022A3
:107140001A610F4A072104F12800FFF778FF40F287
:10715000071104F15800FFF7B1FF4FF4847104F1F7
:107160006000FFF7ABFF40F2111104F1C800FFF718
:10717000A5FF00232372F8BD3346C5E73070050034
:107180004E70050070B5036888B09B6804460E46D3
:10719000984705462046FFF74BFF05AC0146009493
:1071A00002AB320C284627F08BFEC82806D1BDF86A
:1071B0001E204FF6FF739A4208BFCC20ADF8140092
:1071C000204627F0EDFF08B070BD73B50368044694
:1071D0009B6816460D4698476379E28800921B0922
:1071E00032462946006A0AF031FD02B070BD38B55A
:1071F00003689B680D4604469847006A038CC3F3F6
:107200000E03AB4205D9E1882A46BDE8384008F0B4
:107210002DBB002038BD28F02DB927F0C3BF0000DA
:1072200030B590F83430022B85B004460D4606D0B8
:1072300040F2F71205B0BDE83040FFF7ECBFCB8855
:10724000B3F5CC4F0DD1436C019301A902A828F0EE
:107250001FFB02ABC82229462046FFF7DEFF05B020
:1072600030BD0248622126F0F1FD00BF995F0500A4
:1072700030B5CA8840F601539A429FB005460C4685
:107280004FD108AB0B2219460020013A43F8080BF6
:10729000FBD1274B27481B680293274B0A901B689A
:1072A000264803930C90264B26480E9026481B68D0
:1072B0001090264804931290254B2648089314906A
:1072C000012325488DF824308DF82C308DF834308A
:1072D0008DF83C308DF844308DF8543016908DF890
:1072E0005C308DF814301D4818900B23ADF8183021
:1072F0001B481C4B1A9000931B488DF84C2002AB86
:107300008DF864208DF86C201C908DF87420079106
:10731000C822019321466B462846FFF77EFF1FB027
:1073200030BD4FF4C8721FB0BDE83040FFF773BFE7
:10733000BC2B002015600500B82B00201D60050047
:10734000B42B0020286005003A6005004560050068
:107350000A60050053600500676005007460050061
:1073600083600500020D03009160050030B5B0F8A0
:107370006420C82A85B0044618D190F841301BB368
:1073800090F8401090F84250ADF80030194400F1E8
:10739000180301930E4B0293A942B8BF642202ABBB
:1073A00000F10801CDF80CD0FFF737FFB4F86420E6
:1073B000C82A04D004F108012046FFF72CFF6FF41F
:1073C0007F43636105B030BDCC23A0F86430EDE7A6
:1073D000070103002DE9F0414FF4CB7388B0A0F80A
:1073E000643004460AF0F8FDB4F81680277D05469F
:1073F00004AE406908F0D2F8334601AA414605F1CF
:107400002C0006F0B1FFC8284FEA171768690FD0A3
:1074100008F0D0F8237D62791B09B3EB121F4FEA05
:1074200012102DD1204608B0BDE8F041FFF79EBFF5
:10743000039B9B78C3F34303BB42E9D1BDF81820FB
:107440004FF6FF718A42E3D01B01002563F30F055D
:1074500062F31F4508F0AEF80F4B9D42DAD00F4B98
:10746000CDE904340E4B0693002307930AF0B4FDD4
:1074700062693346294608F0CFF8A4F86400C9E7EA
:10748000084B04930023059396E80C00214608B0AE
:10749000BDE8F04124F0C0BFF000FFFFA47005007C
:1074A000D96A02006D73020008B5FFF7D5FB18B961
:1074B00002481F2126F0CAFC08BD00BFA3600500DA
:1074C00020F00200A0F1C803584258417047000064
:1074D00008B50378012B03D00348802126F0B6FCC1
:1074E0000223037008BD00BFA360050090F82030A0
:1074F000828B03F00F031B0143EA02407047000038
:107500002DE9F041234B036086B005460AF064FD87
:1075100004464069AE8B08F041F8636A9BB395F866
:107520002130F3B1E36900930027DB688DF8047024
:1075300002934FF01508684607F0B1F888B10123AF
:107540004FF4FA7203A90C30CDF80C800497ADF813
:107550000E60ADF814700AF0ADFF684627F050FBDE
:10756000E9E7A06BC6F30E01083007F0A5FA28463C
:10757000FFF7BCFF276C0146384607F083FC206A02
:10758000314607F0D5FA606908F014F8284606B0CD
:10759000BDE8F0811883050010B50446FFF7B0FF81
:1075A00020462BF099FB204610BD00000A4B10B579
:1075B00003F15002036094330446826040F82C3F8C
:1075C00027F06AFF04F10800FFF79AFF2046FFF753
:1075D00059F9204610BD00BF10840500A0F12C0011
:1075E000FFF7E4BFA0F10800FFF7E0BF10B50446C5
:1075F000FFF7DCFF20462BF06FFB204610BDA0F10B
:107600000800FFF7F3BFA0F12C00FFF7EFBF000069
:10761000124B10B50446036000F560701AF062F872
:1076200004F55A7016F094F804F584700EF0F2F830
:1076300004F1480013F0EEF804F13C0012F0D0F928
:1076400004F12C00FFF7ACF804F1240027F018FD3A
:107650002046FFF755FF204610BD00BF68730500A8
:1076600010B50446FFF7D4FF20462BF035FB20462B
:1076700010BD000010B5054B03600446C06A07F05A
:1076800057FF2046FFF73CFF204610BD6C720500F7
:1076900010B50446FFF7EEFF20462BF01DFB2046F9
:1076A00010BD73B5036804469B680D46164698479F
:1076B000A38B009394F82030006A324629460AF0E2
:1076C000C5FA02B070BD000037B505460B783148E9
:1076D0008DF804300C4601A925F0A8F82E4B1A6845
:1076E000D20704D42D4A2E49116001221A60237852
:1076F0002A488DF8043001A925F098F8294B1B6819
:10770000DB0701D4FEF7DEFF237827488DF804302D
:1077100001A925F08BF8237824488DF8043001A9BD
:1077200025F084F8237822488DF8043001A925F04B
:107730007DF8012101AA02208DF8041009F0AEF8AD
:107740002378012B20D19DF8042082B12378194899
:107750008DF80030694625F069F82378012B01D1B6
:1077600085F8CC3B144B1B6824351D6010E0B5F840
:107770003C1C4FF6FF7399420AD142F21071284621
:10778000FFF78FFFA5F83C0C9DF80430002BDDD1EE
:1077900003B030BD102F0020D82E0020D02E0020A6
:1077A000B6600500F02E0020DC2E0020F42E002014
:1077B000682F002070EC00206831002038B5036885
:1077C0009B680D4604469847006A038CC3F30E037A
:1077D000AB4205D9A18B2A46BDE8384008F046B82F
:1077E000002038BD08B50378012B03D102482121C0
:1077F00026F02CFB08BD00BFBD6005002DE9F04F51
:1078000090468DB090F822201D46FF2A169B0193CA
:10781000044603680F4664D09B689847D0F828A0B8
:10782000DAF81830DAF820909E8894F822305E4317
:1078300009EB060B39F80620002A52D0BBF80220CB
:10784000BA424ED1642D3ED12C4A2D490892DBF824
:1078500008200125CDE905120AA805A9099527F0F8
:10786000FEFDE18B49B34A1992B2E2832046ABF8A0
:107870000210FFF73BFE40F201120592DBF80430E4
:10788000ADF816100022CDE9022303238DF8103045
:107890002368CDE906809B682046984702AB08AA7A
:1078A00005A90BF021FD0546FFF70AFE40B105A82A
:1078B000FFF798FF0DB0BDE8F08F02222946D4E70C
:1078C00005A8FFF78FFF002339F8067049F8063046
:1078D0000AF1100094F8221007F0EEF8FF2384F864
:1078E00022302368019A16929E6942462B463946F9
:1078F0002046B4460DB0BDE8F04F6047D082050089
:107900000D00030010B5054B044640F8083BFFF797
:1079100069FF2046FEF7B6FF204610BDB87005008F
:1079200010B50446FFF7EEFF20462BF0D5F92046B0
:1079300010BD00000D4B10B5044640F8C83B1BF0CD
:1079400053FA04F16000FFF7DDFF04F158001BF06B
:1079500055FA04F128001CF0BDFD04F110001BF0E5
:1079600057FA204627F098FD204610BD64700500A8
:1079700010B50446FFF7DEFF20462BF0ADF9204698
:1079800010BD000010B50A78012A03D03121194832
:1079900026F05CFA0478012C01D13421F7E702705B
:1079A0004C78427864F3030242704A8842808A68C5
:1079B00082604A6842604A784478C2F3001262F3F7
:1079C000041444704A78E4B2C2F3401262F34514DE
:1079D00044704A78E4B2C2F3801262F386144470B1
:1079E0004A78E4B2D20962F3C714002344700B70E2
:1079F00010BD00BFBD600500F0B5154642696FF4CB
:107A00007F439A4285B004460E4645D10023A0F834
:107A1000403080F8423003844362838683636B681E
:107A2000224A82614FF6FF71012B81830186C26277
:107A300006D92B8A23B1686927F0CAFC84F8400074
:107A400000270AF0C9FA009704F11402184BE968FC
:107A50000AF0ECFAC828024620D1314604F10800A9
:107A6000FFF790FF6379227D1B09B3EB121F4FEAEA
:107A7000121005D1204605B0BDE8F040FFF7AABCC2
:107A80000C4BCDE9023704AB13E90C00214605B0DD
:107A9000BDE8F04024F0C0BC40F2A71231462046B9
:107AA00005B0BDE8F040FFF7B6BB00BFB56105000B
:107AB000F000FFFFD5730200704710B50C2204469A
:107AC00000212CF005F8204610BD7FB5037843B1A6
:107AD00001A926F0F1F801A826F0D4F807B05DF866
:107AE00004FB1846FAE726F0E7B838B504460D4619
:107AF000FFF7EBFF38B10C22294620462BF0BEFFE2
:107B0000B0FA80F0400938BDF8B50C220E460021CD
:107B100005462BF0DDFF304626F0B4F828B330469A
:107B20002BF0B2FB033507463446A31B9F421CD9FA
:107B30000422002120462BF043FAB8B1001B431E5B
:107B4000032B03D8DFE803F034302D1200231A464C
:107B50001946032805F8031C05F8022C05F8013C1A
:107B600004F1040405F10305DFD8F8BDE3782F3BE9
:107B70009B00DBB20420A2782F3A43EA22131201C1
:107B8000DBB2D2B261782F3942EAA1028901D2B2C6
:107B9000C9B294F800C0ACF12F0C41EA0C01C9B293
:107BA000D7E703200023E6E7002302201A46E9E78F
:107BB000002301201A461946EBE700002DE9F041A9
:107BC0001F4603688AB0DB689DF84080164606AA07
:107BD00004469847C828054624D1314603A8FFF734
:107BE00093FFE668B06807F0D9FC009706AB224621
:107BF00003A906F10C0024F061FD104FB0B93888DC
:107C000084B2B06807F0D6FC3B88A34202D030466D
:107C100018F0D8F9119B1C803A8840F2FB13A2425D
:107C200008BF1D4628460AB0BDE8F081B8F1000F34
:107C300000D0306518F096FAE2E700BFCC2E0020A5
:107C40001FB50B4601680C6B0246141B0F4AC8682F
:107C5000A4105443012202FA04F193B103AC0023AF
:107C60000094039329F0AEFF039B43B1084B4FF000
:107C700080525A6040BFBFF34F8FBFF36F8F04B085
:107C800010BD04B0BDE8104029F030BFABAAAAAACD
:107C900000ED00E030B50C4D0A44914200D130BDFA
:107CA00011F8013B83EA000404F00F0455F8244066
:107CB00084EA101080EA131303F00F0355F8233001
:107CC00083EA1010E9E700BF88820500F8B518B90B
:107CD0000D21174826F0BAF829BB0E21F9E7035DFC
:107CE0000E5DA3F14107A6F14105192FEDB20ED8A3
:107CF000192D43F0200307D846F020050134A24295
:107D00000BD0AB42EBD008E0354636B1F6E7192D83
:107D100005D846F02005002BF0D1581BF8BD35469C
:107D2000002BF2D1F9E7002425462346E7E700BF00
:107D3000C96005002DE9F341144606460C200F46A4
:107D40009846FEF789FF022C98BF01340D49089B25
:107D5000836094BFE4B20024C0E900680346009445
:107D600005463A460848002E18BF3146FEF74AFE3F
:107D7000044610B9284625F081FF204602B0BDE830
:107D8000F08100BFB561050071690200002108B5EE
:107D9000084629F06FFDC0B2831E5842584108BD05
:107DA0002DE970430F4ED6E900231A4317D0D6E9C8
:107DB0000045FEF7A9FB4FF47A72A0FB020302FB19
:107DC0000131830A43EA8153B4EB0308064B65EBA8
:107DD0009129C3E9008900220023C6E90023BDE8F8
:107DE000708300BF883D0020803D002008B5FEF76D
:107DF000C3FB4FF47A7200232EF054F808BD000044
:107E000010B5FFF7CDFFFFF7F1FF054B1B680146EB
:107E100023B1044ABDE810401068184710BD00BFE8
:107E20007C3D0020783D0020FFF7E0BF38B50546D7
:107E300018B9BDE83840FFF7D9BFFEF79DFB4FF4F6
:107E40007A72002304462EF02DF8C0EB401300EBAD
:107E50008303A4EBC3042C8038BD08B5FEF754FBA4
:107E60004FF47A72A0FB020302FB0133800A40EA5E
:107E7000835008BD08B529F011FD012803D0BDE8E5
:107E8000084029F005BD002008BD10B504460AF0E1
:107E9000A3F82146C06926F080FF044628B1FFF709
:107EA000E9FF6469231A5842584110BD70B505694D
:107EB0000446FFF7DFFF2B689B68834204D0094824
:107EC0004FF4817125F0C2FFE2686168A368551024
:107ED00001EB6200D20748BF4A59BDE8704048BF75
:107EE000D3581847906F0500094B1B6843B90138F8
:107EF00042F2B63300BF013BFCD10138F8D27047E3
:107F000080024FF47A73B0FBF3F029F009BB00BF95
:107F100068F7002038B50568AB68044623B900232C
:107F200063600023236038BDFFF7A4FFAB68834282
:107F3000F5D0296B094AE868611A8910514300237A
:107F40000122636002FA01F129F0D0FD0120FFF760
:107F5000CBFF23689D42F9D0E3E700BFABAAAAAAF2
:107F600010B5044B036004464069FFF7D3FF204679
:107F700010BD00BFE082050038B5084B0360044621
:107F8000406848B14568FFF7C5FF002363601DB135
:107F90002B6828465B689847204638BD80820500DC
:107FA00010B50446FFF7E8FF20462AF095FE20466C
:107FB00010BD000010B5044B036004464069FFF794
:107FC000A9FF204610BD00BF4872050010B5044B44
:107FD000036004464069FFF79DFF204610BD00BFC7
:107FE0008470050008B527F0C3FF18B902481A21AC
:107FF00025F02CFF08BD00BFDA60050008B527F0AA
:10800000B7FF18B902482B2125F020FF08BD00BF9B
:10801000DA60050008B518B90548662125F016FF95
:108020000022114627F080FD431E5842584108BDEA
:10803000DA60050007B5ADF8000001916A4600213D
:1080400044F2020005F024FF2DE9F047834CD4E907
:1080500000329A4286B000F082800023C4F81832C1
:10806000BFF34F8F6068A56802902840033004EB8F
:10807000800002A9FEF7BEFA029B18B1D4F81822BC
:10808000002A68D005EA03029F1C013304EB820238
:108090002B4004EB8303D268DB68049302F00303F4
:1080A000022B039202976DD1BDF80E30C3F38918ED
:1080B000B8F1800FC14628BF4FF0800969F38F13D4
:1080C00009F10800ADF80E3025F088FF06460028BB
:1080D00000F0AC8008F01AFF00233046082203A904
:1080E00008F034FF25EA07030133B9EB830F4FEAA9
:1080F00083003FD95FFA89F9002837D005EA0701E4
:10810000C5B2A9EB050A0331A946554D04EB81011F
:108110005FFA8AFA08234A46304608F017FF35B15D
:1081200009F1080352462946304608F00FFF08F1CE
:10813000030807EB98070297D4F81832D4F81052C6
:10814000002B5ED0304608F0EEFED4E90030C01AB5
:1081500018BF012004E022689A4204D8626000201F
:1081600006B0BDE8F08705EA03007FE73C49054615
:108170008246CFE705EA0701033108234A4604EBAC
:108180008101D1E7012B51D1BDF80C30C3F383102D
:10819000062828BF062060F38913023000F00F0084
:1081A0008000ADF80C3025F019FF064600283DD0C0
:1081B00008F0ACFE0023082203A9304608F0C6FEF2
:1081C0000027BDF80C20C2F38312BB00BA4203F1B2
:1081D0000803B1D902994A1C29400331029204EBE9
:1081E00081010422304608F0B1FE0137E9E7EB686F
:1081F0005B7923B12B6831461B6828469847EB68AA
:108200001D68002DF3D1304608F08DFE0DF10700FA
:108210008DF8075025F036FED4F818320BB9029BC2
:1082200063609DF8070008F0FFFC8EE7D4F8106249
:1082300066B90C4B0C4D0D49ED1AED082D04334673
:10824000324645F0020000F013F87EE7336830460E
:108250009B689847F3681E68EAE700BF543B00201C
:10826000603B0020706C0600B86C0600EA600500F8
:108270002DE9F04F6E4C8BB0CDE90101994603F129
:10828000020A0DF1170000238DF81730A66803923B
:1082900025F0F8FDD4E9013527682B440133DB1BB9
:1082A00004F5077804F5057B9A452CD83D40052355
:1082B000033569F3891344F825309DF817000AEB5C
:1082C0000703236008F0B0FCB81C00224A4502EB0B
:1082D000000140F08380019B0025190C554B53E8A9
:1082E000000FAC4643E800CE9EF0000FF7D1524B92
:1082F000524D80F310005B1BB1EBD30F77D3504985
:1083000040F2A3103CE0012358E8002F02EB0301E8
:1083100048E8001090F0000FF6D14A4A52E8001FDA
:1083200041EA030042E8000C9CF0000FF6D15BE844
:10833000002F42EA03014BE8001090F0000FF6D145
:10834000606806902840033004EB800006A9FEF721
:1083500051F9069AB0B905EA020304EB8303D96820
:108360000791931C01322A4004EB820201F00301C1
:108370000129D2682BD0022907D031494FF4BF70B0
:10838000FFF758FE05EA0200DDE7BDF81E10C1F355
:1083900089110331120C03EB910300215BE8000FFC
:1083A00000EA010C4BE800CE9EF0000FF6D100B1C0
:1083B000636058E8003F03EB020148E8001090F0CA
:1083C000000FF6D163682B440133DB1B6CE7BDF86B
:1083D0001C10C1F38311120C0B44DEE7039B3140E8
:1083E00004EB810153F82230CB6001326EE77B1C35
:1083F000334004EB830341EA0041D960019BDB0079
:1084000003F0380343F0010343EA82133E40029A2B
:10841000033643EA822344F8263094F820321BB115
:10842000FFF712FE0028FBD10BB0BDE8F08F00BFB4
:10843000543B0020703D0020F86C0600706C060074
:10844000FB6005006C3D00202DE9F743424B434E95
:10845000F61A434BF60893F820923604804646F00D
:108460000506B9F1000F69D12AF00EFF3D4C01233A
:1084700054E8005F45EA030244E8002191F0000F50
:10848000F6D1002D65D1D4E90323D11A40292CD18E
:1084900054E8003F03EA050244E8002191F0000F90
:1084A000F6D12A46414638462AF0DAFD7B19216981
:1084B000002203F8012CA36801F14000C01AA84271
:1084C00029D32B44C4E9023354E8000F00EA020C1C
:1084D00044E800CE9EF0000FF6D1E0B15B1AAB424B
:1084E0001ED2214940F20E2018E003F03F0102F0B5
:1084F0003F078F4234BF4033C7F1400300F1010012
:1085000038BF9B1A984228BF1846184B02440546AC
:108510001F44E260C5E7144940F20A20FFF78AFDD4
:108520002944C4E90411124B53E8001F01EA020078
:1085300043E8000494F0000FF6D1B8460D49CDF899
:108540000480012301AA3046FFF792FE03B0BDE884
:10855000F083C846F2E700BF706C0600B86C0600F6
:10856000543B0020382E0020FB600500502E0020D8
:108570003C2E00200BFE0500BFF34F8F0549064B34
:10858000CA6802F4E0621343CB60BFF34F8F00BFB1
:10859000FDE700BF00ED00E00400FA0508B5FEF7B6
:1085A00045F840B14FF080537E4AD3F82433C3F3EB
:1085B0000423C2F84035FEF754F810B17A4B7B4AD9
:1085C0005A67FEF733F848B14FF080534FF08042BE
:1085D000D3F84432C3F34233C2F83C35FEF741F8D6
:1085E00030B1734AD2F8FC3023F08073C2F8FC300B
:1085F000FEF71CF840B14FF080430022C3F80C2175
:10860000C3F81021C3F83825FEF72BF820B14FF03E
:1086100080430322C3F8A025FEF723F860B1654B21
:108620000522C3F810260122C3F888260022C3F8C9
:1086300018263F22C3F814264FF0704393F8E02F1A
:10864000062A50D1D3F8E42F11074CD1D3F8E83FD4
:1086500003F0F003502B46D14FF08052564BD2F826
:108660000414C3F82015D2F80814C3F82415D2F85E
:108670000C14C3F82815D2F81014C3F82C15D2F82E
:108680001414C3F83015D2F81814C3F83415D2F8FE
:108690001C14C3F84015D2F82014C3F84415D2F8BE
:1086A0002414C3F84815D2F82814C3F84C15D2F88E
:1086B0002C14C3F85015D2F83014C3F85415D2F85E
:1086C0003414C3F86015D2F83814C3F86415D2F81E
:1086D0003C14C3F86815D2F84014C3F86C15D2F8EE
:1086E0004424C3F87025FDF7A1FF48B14FF0805333
:1086F0004FF08042D3F8583203F04F03C2F8E43E03
:10870000FDF794FF48B14FF08043D3F80024D2071F
:1087100044BF6FF00102C3F800244FF08053D3F838
:108720003021062A0AD1D3F83431062B01BF234A5F
:10873000D2F83C3743F48063C2F83C371C4AD2F885
:10874000883043F47003C2F88830BFF34F8FBFF313
:108750006F8F4FF01023D3F80C32DB071DD5184B69
:108760000122C3F80425D3F80024002AFBD04FF0DF
:108770001022D2F80C3223F00103C2F80C32104B55
:10878000D3F80024002AFBD00022C3F80425D3F834
:108790000024002AFBD0FFF7EFFE0A4B0A4A1A60BA
:1087A00008BD00BF0030014000C007400DF0ADBA69
:1087B00000ED00E00050004000C00040001000400C
:1087C00000E00140B02B00200090D0034FF08073F8
:1087D00040E90213054B40F80C3C6FF0020340F8EF
:1087E000202C40F8243C4438704700BFB98C02006C
:1087F00070B5EFF3108672B60C4A9468012384B901
:1088000093600B4B0B4DD3F8801029401160C3F8D7
:108810008050D3F8841051604FF0FF32C3F88420A9
:108820002346037006B962B6002070BD3C3B0020B1
:1088300000E100E0FC06FFBD084B9A6810B55AB194
:1088400050B9EFF3108172B6054A1C6814605C6879
:108850005460986001B962B6002010BD3C3B002016
:1088600000E100E00023435082B043580193019B94
:1088700002B0704770B518484FF4A071FFF7F2FFCF
:10888000EFF31186202383F311884FF48071D0F821
:108890000445FFF7E7FF28F0FBFC241A24F07F4390
:1088A00023F001036BB924F07F440025013C0ED274
:1088B00025B10A4B4FF080525A6040BF86F31188B1
:1088C00070BD28F0EBFF0228EDD00124EDE728F081
:1088D0001FFD0543EAE700BF0010014000ED00E086
:1088E000F7B506460DF10700FFF782FF08B108F063
:1088F0001FFA2D4CD4F8047528F096FF002848D0B4
:108900002A4DB54228BF3546EB1923F07F4301229B
:10891000C4F808234FF4A071C4F840352046FFF78F
:10892000A1FF4FF48033C4F80433BFF34F8F86B1F7
:108930001F4B1B7843B91F4A20BFD2F80031D2F831
:1089400004110B43F8D004E0FDF7A0FE08B108F0D5
:10895000EFF94FF480331448C4F808334FF4A07192
:10896000FFF780FF4FF48071FFF77CFF0123C4F80D
:108970000433D4F804050F4BC01B20F07F40A842FD
:108980004FF4003228BF2846C3F8802108B128F0F0
:10899000A7FC0020FFF750FF20B103B0BDE8F04076
:1089A00008F0C6B903B0F0BD00100140FDFFFF00A4
:1089B000383B002000E100E00748006880F30888A9
:1089C00062B661B6BFF34F8FBFF36F8F4FF4F07095
:1089D00080F3118800DF00BF00600200064B1968B9
:1089E0000868B0E8F04F80F30988BFF36F8F4FF04D
:1089F000000080F31188704768F70020EFF30980CA
:108A0000BFF36F8F144B1A681EF0100F08BF20EDD4
:108A1000108A20E9F04F10604DF8043D4FF020001F
:108A200080F31188BFF34F8FBFF36F8F28F0E2FD03
:108A30004FF0000080F3118808BC19680868B0E89E
:108A4000F04F1EF0100F08BFB0EC108A80F30988B9
:108A5000BFF36F8F704700BF68F7002000F1080375
:108A60004FF0FF32C0E9022343600361002303603B
:108A7000704700230361704743684B609A688A60BF
:108A8000516099600368086101330360704730B535
:108A90000C68631C0AD103695A684A6091608B6054
:108AA0005960036808610133036030BD00F10802BA
:108AB000134652681568A542FAD9EDE7914208B508
:108AC000416000610AD8D21A83699A420DD2084BDC
:108AD000011D1868FFF7DBFF002008BD9A4201D294
:108AE000994202D2034B011DF3E70120F5E700BFD5
:108AF000EC3A0020E83A0020D0E9011203698A60CC
:108B000051605968814208BF5A60002202611A68A8
:108B1000013A1A601868704770B50346007868B16A
:108B20001946002011F8014F02460130002CF9D1FE
:108B3000591E15461344AC1AA24200DC70BD11F850
:108B4000014F1E780E70013A03F80149F3E74068BF
:108B5000FFF776B880F8481C002100F54460FFF765
:108B6000F6BFA0F12400FFF7F5BF70470A460221C7
:108B7000FEF765BA08B1FEF737B9704708B1FFF7DD
:108B8000F9BF704710B50446FFF7F8FF204610BD47
:108B900010B50446FFF7F2FF204610BD10B504469D
:108BA000FFF7ECFF204610BD10B50446FFF7E6FFC7
:108BB000204610BD10B50446FFF7D2F92046FFF756
:108BC000DDFF204610BD10B504460430FDF78CFCD7
:108BD0002046BDE81040FFF7EDBF10B50446FFF793
:108BE000CDFF204610BD10B50446FFF7C7FF204655
:108BF00010BD10B50446FFF7C1FF204610BD10B5EB
:108C00000446FFF7BBFF204610BD10B50446FFF732
:108C1000B5FF204610BD10B50446FFF7CBF920463E
:108C2000FFF7ACFF204610BD10B504460430FDF739
:108C300068FD2046BDE81040FFF7EDBF10B50446C3
:108C4000FFF79CFF204610BD10B50446FFF796FFC6
:108C5000204610BD10B50446FFF7B8F92046FFF7CF
:108C60008DFF204610BD10B504460430FDF768FDA9
:108C70002046BDE81040FFF7EDBF0846FDF7ECBF0A
:108C80000846FFF777BF000008B50248422125F0EB
:108C9000DDF800BF4C61050008B500BE09F0D6F84C
:108CA00008B50A46202383F311880146022006F006
:108CB00033FFFFF7F1FF000008B5064B1B680133D7
:108CC00003D005489E21FFF7EBFF202383F3118893
:108CD000FEE700BF503B002057610500324B07B54F
:108CE0001A68324B9A4203D03148B021FFF7D8FFBF
:108CF000304B1A78D2B20192FF221A701B782E4A9A
:108D0000DBB28DF803309DF8033003F001031370DC
:108D10002A4A0723136000219DF80300000603F18F
:108D2000FF3437D401B1136013681F4C03F00703FD
:108D30001360019B1F4ADBB2E025137084F82250B8
:108D400025F0B6F81E4B1F22C3F808250122C3F8F0
:108D500004239A601A600222C3F84423194B4FF48B
:108D6000003283F811531A60174B00221A60D4F8AE
:108D70008830164A43F47003C4F88830536B43F0CC
:108D800040435363236943F010032361FFF714FE4C
:108D9000FFF792FF9DF803305B00DBB28DF80330E4
:108DA00001212346B8E700BF00ED00E041C20F41BA
:108DB0005761050000E400E04C3B0020483B0020E8
:108DC0000010014000E100E0503B002000EF00E017
:108DD00008B5202383F31188084A13680133012B57
:108DE000136009D1064B5B68C3F3080323B1054840
:108DF00040F21111FFF754FF08BD00BF503B0020A7
:108E000000ED00E057610500074A08B5136823B973
:108E100006484FF48C71FFF743FF013B13600BB919
:108E200083F3118808BD00BF503B00205761050047
:108E300070B50446FFF7CCFF94F8455004F12406C2
:108E40006DB2002D14DCFF2384F84530FFF7DCFF02
:108E5000FFF7BEFF94F8445004F110066DB2002DE8
:108E600012DCFF2384F84430BDE87040FFF7CCBF2C
:108E7000636A002BE7D0304628F04EFC08B128F09A
:108E8000CDFC013D6DB2DCE72369002BE9D0304613
:108E900028F042FC08B128F0C1FC013D6DB2DEE7CC
:108EA00038B5144DFFF794FF2C68DCB91249084619
:108EB000FFF7D4FD1148FFF7D1FD114B1960114B9D
:108EC000102118600A2027F019F8286050B10E4AC6
:108ED000234652F8334002EBC3013CB90B4C42F835
:108EE00033404860BDE83840FFF78EBF0133082BA0
:108EF000EFD1F7E7F43A0020D03A0020BC3A002046
:108F0000E83A0020EC3A0020F83A002064610500BD
:108F100008B5EFF30583C3F308030F2B0DD903F155
:108F2000E0230C4AF033127893F800339A4204D9C4
:108F30004FF4A9710848FFF7B3FE084B084ADB68F5
:108F40001268C3F302239A4202D24FF4B171F1E7DF
:108F500008BD00BF4C3B00205761050000ED00E05C
:108F6000483B00202DE9FF410446019120B940F221
:108F700091515448FFF794FE056C15B140F295519C
:108F8000F7E728F08BFC064630B32E46DFF8388131
:108F90000027FFF71DFFA36B23B3013BA3632368E7
:108FA00013B928F051FDA06023696BB104F11000E2
:108FB00028F0B2FB40B1444B4FF080525A6040BFA2
:108FC000BFF34F8FBFF36F8FFFF71EFF012004B079
:108FD000BDE8F0813546D9E7019B002BFAD040F27D
:108FE0009A51C6E7019B23B9002D67D040F2E151A9
:108FF000BFE716B902A828F0CFFBFFF705FF28F05E
:109000003FF9FFF7E5FE94F84430FF2B08BF84F8E2
:10901000447094F84530FF2B08BF84F84570FFF783
:10902000F3FE01A902A828F0C3FB68BBFFF7D0FE3E
:10903000A36B03BBFFF7E8FE23683BB9FFF7C8FE4D
:10904000A06828F03BFC0546FFF7DEFE019904F11D
:10905000240028F029FB2046FFF7EAFE28F0ECF96F
:1090600080B94FF08053C8F8043040BFBFF34F8F32
:10907000BFF36F8F06E0FFF7C7FE2046FFF7D8FE6D
:1090800028F0DAF9012684E72046FFF7D1FE28F020
:10909000D3F9FFF79DFEA36B13B1FFF7B5FEF1E720
:1090A000FFF7B2FE65B1FFF793FE616A19B1236B5A
:1090B0001968C1F10501A06828F07CFCFFF7A4FE47
:1090C000002084E770F1050000ED00E010B50446D3
:1090D00018B90648512124F0B9FE4FF4205120461A
:1090E000FFF740FF0128F8D110BD00BFDA6005008E
:1090F0000EB4F0B5384B1B7890B00646002B61D00B
:10910000364D2B6813B9FEF76DFF2860344F286881
:10911000FFF7DCFF16AB159A01934FF480713846C8
:1091200029F018FF002852DBFF284FF00004C4BFCD
:1091300087F8FF402B4CFEF759FE0023029007A949
:1091400002A803932AF0CCFA099B0A2293FBF2F1BE
:1091500002FB113330338DF81130089B01F13000E0
:109160008DF8100093FBF2F002FB103330338DF8D2
:109170001430079B3A218DF812108DF8151093FBCF
:10918000F2F102FB113300F13007303301F130000E
:109190008DF816008DF8173004A820238DF8137071
:1091A000ADF81830FFF750F90D48FFF74DF916B13B
:1091B0000D48FFF749F90A4816F00EF844B9286837
:1091C000FEF728FF10B0BDE8F04003B07047074C31
:1091D0002046FFF739F9F2E79C3D0020A03D002032
:1091E000A43D002069610500B36105008F610500A1
:1091F0002DE9F0472D4B1C685368C4B006460F4656
:1092000015463BB113892BB1D06826F01CF9002C10
:109210003BD018BB0DF1100843462025C246002262
:10922000013D43F8082BFBD14FF040090CB1202D34
:1092300018D1002C1E4B029308BFC82202AB18BFE6
:10924000642239463046ADF80050CDF804A0CDF880
:109250000CD0FDF7E2FF44B0BDE8F087431EE468A0
:1092600098B2D4E760682AF00FF809308144B9F564
:10927000E97F08F10808DCD8636848F8083C237ADD
:1092800008F8043CE4680135D0E7E86826F0DBF82C
:10929000084902460120FFF72BFF4FF4D0723946F0
:1092A000304644B0BDE8F047FDF7B5BFEC3E0020C6
:1092B00011010300B66105002B4B2DE9F341D2F8F3
:1092C0000C801D6806460F461446A5B9274942463C
:1092D0000120FFF70DFFE26825490120FFF708FF95
:1092E0004FF4CA7242F480323946304602B0BDE8CB
:1092F000F04126F0BFB86868414629F0EDFD08B19D
:10930000ED68E2E76169012201A829F0A9FE01A93F
:109310002846FDF799FDFF28014616D008B9C82256
:10932000E0E7284625F050FD0028F8D161690122C8
:1093300001A829F095FE9DF80420E3680D4901205D
:10934000FFF7D6FE4FF4FA72CCE76169012201A85B
:1093500029F086FE9DF8042007490120FFF7C8FE8A
:109360004FF4C872BEE700BFEC3E0020DF6105008D
:10937000FA6105001A620500466205002DE9F04F0A
:109380008DB0054690460491002979D003689B680A
:10939000984704462846FDF74BFEC0F303131946D1
:1093A000060C0546E069039325F074FD314620461E
:1093B00004F0A4FE814620B940F24D21314824F04A
:1093C00045FD606906F0EAF804F12C03C246002767
:1093D0000593D3460598BBF8001009AB06AA04F024
:1093E000C3FFC8280AF1020A064610D02B4642469F
:1093F0003946204625F09CFD606906F0DBF809A897
:10940000ADF8246025F0CCFE0DB0BDE8F08F089BD0
:10941000039A9B78C3F34303934202D040F25E2148
:10942000CCE7BDF82C104FF6FF7399421CD02046B4
:1094300004F064FE10B940F26321BFE706A804F00F
:10944000E2FF114A0192BBF80010009103460F4958
:109450000120FFF74DFE2B4642463946204625F0B7
:1094600067FD40F29316C7E7B9F80630ADF82C3027
:1094700009A804F097FF049B0137BB42A9D1BBE7C1
:10948000C820C1E78A5F0500B56105006C62050070
:1094900010B5064A01210446FFF770FFC82806BF31
:1094A000012084F83400002010BD00BF04840500B2
:1094B000A0F12C00FFF7ECBF07B5ADF806100DF1D9
:1094C00006020121FFF75AFF03B05DF804FB10B557
:1094D0004FF486710446FFF7EFFFC82814BF04233A
:1094E000012323740CBF0120002010BDA0F108004F
:1094F000FFF7EDBF10B5054A01210446FFF73EFF17
:10950000C82806BF01202074002010BD0882050075
:10951000A0F10800FFF7EEBF10B5154A04460F2171
:109520001030FFF72BFF134A072104F12800FFF743
:1095300025FF636B5A6D511C596503EB820304F1DF
:1095400030029A6540F2071104F15800FFF7B4FFAA
:109550004FF4847104F16000FFF7AEFF40F2111187
:1095600004F1C800FFF7A8FF0120207210BD00BF62
:10957000307005004E70050070B5856986B00446F0
:1095800035B92449012006B0BDE87040FFF7B0BDF1
:1095900004AE026903923046EB89FDF70DFD297C8C
:1095A000039AADF810100C2909D1AD69217B0595FE
:1095B00005292CD8DFE801F00D171B1F232701F028
:1095C000FD010D2903D114484E2124F03FFC18352C
:1095D000ECE7216800964D6921892046A8470023C1
:1095E000A36106B070BD216800968D69F4E721681B
:1095F0000096CD6AF0E7216800960D6BECE72168D4
:109600000096CD69E8E7216800960D6AE4E7034813
:10961000FD21DAE753A4050000600500A360050002
:10962000F8B504460E4608F0D7FC2146C06925F07F
:1096300025FC044627F024FE23694FF00C0C987893
:109640000023834208D327F0F7FE0B4A0B49012081
:10965000FFF74EFD00250AE0E16B0CFB03F28D18CD
:109660008F5837B90C346E608C5027F0E5FE2846D1
:10967000F8BD0133E5E700BFC3620500C76205001E
:109680002DE9F04F1F469BB090460446FDF72EFF94
:109690003B7A249E18F0800FC0F3400A1CBF08F0EC
:1096A0007F084FF0010A13F0020FC3F3800200F0AD
:1096B000010508BF01255B07C0F3800E48BF964631
:1096C000E28B44BF012384F82130C1F30F493B688A
:1096D000002A4BD002F1010C1FFA8CFCA4F81EC02A
:1096E00003B11A8045EA4A0545EA8E0520F0070CC9
:1096F00005F0070545EA0C0565F3070001258DF81F
:1097000010509DF81150ADF8122068F3030505F0D4
:109710008F056FF3C7158DF8115065680022CDE9EC
:109720000510A261002D76D06FF47F4CAA89002A23
:1097300071D02A78092A1DD0A2EB0800424242418A
:10974000B5F808E0BEF1000F03D02089013086454E
:109750000ADCB5F80AE06868BEF1000F0CD160457C
:1097600001D0814200D182B92835DFE74FF0020CE9
:109770000122B3E70122E3E7604501D08142F3D142
:10978000002AF1D022897245EED22289A5610132E8
:1097900092B22281A88918B9D321614824F056FBDE
:1097A00003B11A80EB8922890B91ADF830308DF826
:1097B0002880ADF82A20ADF82E900D950AAB0FCB7E
:1097C00004F10C0686E80F00182094F82070FDF7CD
:1097D0006BFE544B0360544BC0E90134534BC360E0
:1097E00000240646046101463846FFF719FF706100
:1097F00010B94FF48A71D0E704722146FEF720FABF
:1098000004A8FDF765FEAC8904A8FDF7EBFF204630
:109810001BB0BDE8F08FB8F1010F70D17368002B59
:109820006DD036F833300D2B69D194F82230FF2BF0
:1098300072D1236820469B689847D0F828A00AF187
:1098400010080021404608F0A5F9C0B2FF2884F8AE
:10985000220051D071684A1E06EBC101D1F804B054
:10986000BBF1000F02D140F2A11196E730490B92F3
:109870000A910DF128090025AA4209F1080932D8F8
:10988000DAF81820DAF82060958894F822205543F9
:109890007319BDF812205A8072537A68C3E9012BFC
:1098A0000023CDE9073203238DF8243023682046B6
:1098B0009B68984707AB0AAA04A909F015FDADF803
:1098C0000E00FDF7FDFD40B97051404694F822109E
:1098D00005F0F2F8FF2384F822300DF10E0025F098
:1098E0005FFC044690E7013506EBC501484601924E
:1098F00025F0B5FD019ABFE740F2FB1484E7236829
:1099000020469B6898473B46324604A909F0ECFC88
:10991000ADF828000AA8E2E740F2A71474E700BFF8
:10992000A3600500E0820500F4820500799502003D
:109930000883050007B5044B0093044BFFF7A0FE16
:1099400003B05DF804FB00BF5CEC002064EC002079
:1099500038B5044610490120FFF7CAFB94F83C30A3
:1099600073B104F108050522216C2846FFF7E2FFD8
:109970000246FDF735F938B908490120FFF7B8FB71
:10998000032384F8343038BD216C284627F01CF9B5
:10999000002384F83C30F3E7DD620500FE62050039
:1099A000A0F12C00FFF7D4BFF0B50446224987B0E0
:1099B0000120FFF79DFB94F83C70002F39D104F192
:1099C00008061E4904F14002304625F0C7FC054652
:1099D000FDF706F9D8B10DF10A03CDE903370323EA
:1099E0008DF81430164B0093216C03AB04223046E3
:1099F000FFF746FE0546FDF7F3F8B8B91149012017
:109A00002A46FFF775FB216C304627F0DDF8284623
:109A1000FDF7E6F820B90C492A460120FFF768FB5C
:109A20000223012084F8343007B0F0BD012384F80C
:109A30003C30CA25EBE700BF1F630500416305000A
:109A40005CEC00204D6305006C630500A0F12C0068
:109A5000FFF7AABF07B5090CB1F5206F06D1054B7A
:109A600000930549054B8022FFF70AFE03B05DF81D
:109A700004FB00BF5CEC00200F000537202F002006
:109A80007FB590F8483C63B10023CDE9033302234E
:109A90008DF81430044B0093044903AB8022FFF788
:109AA000EFFD07B05DF804FB5CEC00201F00013205
:109AB00010B5C82B8CB0044605D1C06A0CB0BDE807
:109AC000104006F0B5BD40F2AD1293422ED1194BB5
:109AD0004FF080525A6040BFBFF34F8FBFF36F8F7C
:109AE00090F828208DF80B2000230222CDE90333C3
:109AF00007920323104A8DF814300692436A0F4AE6
:109B00000DF10B010AA8CDE9082325F0D7FA06AB21
:109B100000930B4903AB01222046FFF7B1FDFDF78F
:109B2000CFFC28B93D21074824F090F94321FAE7FA
:109B30000CB010BD00ED00E05C7205000C000300ED
:109B40000F000C018C63050010B58AB090F8282036
:109B50008DF80F20022205920E4A436A04920E4AA3
:109B600004460DF10F0108A8CDE9062325F0A6FA59
:109B700004AB009309490A4B01222046FFF780FD00
:109B8000FDF79EFC18B907482D2124F05FF90AB0B3
:109B900010BD00BF5C7205000C0003000F000C013B
:109BA00064EC00208C63050043F20671B1EB124FA8
:109BB00004D103491A460120FFF79ABA704700BF43
:109BC0009E63050070B51D4C1D4D204626460021A4
:109BD00024F0DAFB1B4B46F8083B1B4A08232946B6
:109BE0000120FFF785FA3046002124F0CDFB174B0A
:109BF000174AA360294608230120FFF779FA04F1E8
:109C00001000002124F0C0FB124B23614FF6FF73BC
:109C1000238329461423104A0120FFF769FA0822FA
:109C200004F11C00002129F053FF0C4B0C480122C9
:109C3000BDE870401A6029F0A6BC00BFA82E002025
:109C4000D563050094710500C3630500D07105005C
:109C5000E56305000C720500F8630500A42E0020E2
:109C6000A16B02000C4B1B68DB0710B5044601D446
:109C7000FFF7A8FF40F20B110848FFF71DFC4FF457
:109C800085710748FFF718FC40F209110548FFF7F6
:109C900013FC0120207210BDA42E0020A82E00204D
:109CA000B02E0020B82E002038B5104B1B68DB0703
:109CB000054601D4FFF786FF0D4C40F20B112046FC
:109CC000FDF7FCF94FF4857104F10800FDF7F6F992
:109CD000218B04F11000FDF78AFA40F2091104F11A
:109CE0001000FDF7EBF900232B7238BDA42E0020E5
:109CF000A82E002070B5124C124E20462546002199
:109D000024F042FB104B45F8083B104A082331462B
:109D10000120FFF7EDF92846002124F035FB0C4B1C
:109D2000A3600C4A082331460120FFF7E1F90A4BF2
:109D30000A480122BDE870401A6029F024BC00BF27
:109D4000942E0020D5630500F47005000A64050018
:109D50003071050017640500902E0020C56B0200CD
:109D60000A4B1B68DB0710B5044601D4FFF7C2FF9E
:109D700040F20F110648FFF79FFB064A06480321F1
:109D8000FFF7FCFA0120207210BD00BF902E0020CA
:109D9000942E0020647105009C2E00200A4B1B6845
:109DA000DB0710B5044601D4FFF7A4FF40F20F1102
:109DB0000648FDF783F9064A06480321FDF73FF9F7
:109DC0000023237210BD00BF902E0020942E00208F
:109DD000647105009C2E002038B5044678B90C4803
:109DE0005F2124F033F84FF420512046FFF7BAF8F2
:109DF00028B1E368012803F10103E36007D0A568F7
:109E000027F046FD8542EED1E3680133E36038BDBB
:109E1000DA60050010B520B90D4840F2B771FEF7C1
:109E20003FFF0C4A002352F8331088424FEAC30424
:109E300009D1094A002142F8331022445160BDE89B
:109E40001040FCF7D1BF0133082BECD1F7E700BF7E
:109E500070F10500FC3A0020F83A002007B5FFF742
:109E60001FF80B4B1B6823B90A484FF48971FEF7A2
:109E700017FF094B01930423009308490848002366
:109E80005A2227F087F80028EED003B05DF804FBD3
:109E9000F43A00202A640500F03A002033640500FB
:109EA0003D9F02002DE9F047DFF88C80064627F041
:109EB000EFF9D8F800308342054609D91B4F3B68BB
:109EC0001A6862B91A4A116839601360012300E008
:109ED00000233360C8F800502846BDE8F087DB68EF
:109EE000DC68D3F8009004F1040A5046FEF704FE43
:109EF000636A20469847E369012BE0D1A3694B448C
:109F0000994506D23868636024615146FEF7BFFD6B
:109F1000D5E700234A461946204625F09BFE002837
:109F2000CDD1044840F27231FEF7BAFEE83A002083
:109F3000EC3A00202A640500E43A002080B5DFF8FE
:109F4000D08288B0AD4D2B681E6876B3DB681E6882
:109F5000002427F095F904A8FFF7A4FF049BA84F5D
:109F60008146002B62D174BBB04232D327F064FA31
:109F70002B68DB68DD68281DFEF7BEFDEB69012B51
:109F800015D1A96933464A4631442846FEF796FD65
:109F900068B1234632462146284625F05BFE30B99B
:109FA0004FF4F4719748FEF77BFE0124D1E76B6A0A
:109FB0002846984700263C680196002C64D14FF44F
:109FC000A0619148EFE7914B1B681C68B4FA84F4D8
:109FD00064093D68FEF7FCFE95F84430FF2B04BF92
:109FE000002385F8443095F84530FF2B04BF00234B
:109FF00085F84530FEF708FFAB6B33B92246A6EB78
:10A00000090105F1240027F069FB2846FEF710FF3F
:10A0100027F012FA0028CDD17D4B4FF080525A60C4
:10A0200040BFBFF34F8FBFF36F8FC3E727F004FA32
:10A03000C0E7A169059B20461944FEF73FFD0028B3
:10A04000B9D0636A20469847E369012BB3D10599DB
:10A05000A26900230A442046194625F0FBFD00288A
:10A06000A9D140F201319DE70599A16111B94FF4E1
:10A07000467197E7034601442046FEF71FFD9AE725
:10A080002046FCF7B1FE96E727F008FC20B9019BBB
:10A0900013B140F2095194E7FEF79AFEA56B002D2B
:10A0A00052D0226C5AB1E368A16813448B42E3603A
:10A0B00024BF2368E360E16804A828F0D1FF013DD4
:10A0C000A56323696BB104F1100027F025FB40B1B3
:10A0D0004F4B4FF080525A6040BFBFF34F8FBFF3DA
:10A0E0006F8FFEF791FE049B002B07DA059BDDE9DD
:10A0F00006019847049B002BFFF65DAF069C636941
:10A1000013B1201DFEF7F8FC6846FFF7CBFE049B59
:10A110000246092B3FF64FAF01A151F823F000BFD3
:10A1200033A0020033A0020033A00200B79F020058
:10A1300069A0020081A0020033A0020033A0020047
:10A14000B79F020069A00200019B7BB302A827F021
:10A1500023FBFEF759FE27F093F8FEF739FE94F83B
:10A160004430FF2B08BF84F8446094F84530FF2B3F
:10A1700008BF84F84560FEF747FE01A902A827F052
:10A1800017FB70BBFEF724FEA36B93B1FEF73CFEFA
:10A190002046FEF74DFE27F04FF9FEF719FEA56B9E
:10A1A000002D7FF47EAF019B002BD2D1FEF72CFE59
:10A1B000C8E6FEF729FE019904F1240027F074FA9D
:10A1C0002046FEF735FE27F037F90028E5D14FF09D
:10A1D0008053C8F8043040BFBFF34F8FBFF36F8F79
:10A1E000DBE72046FEF724FE27F026F9FEF7F0FD18
:10A1F000A36B002BDAD0FEF707FECEE7E83A00208B
:10A20000F43A00202A64050070F10500EC3A0020C1
:10A2100000ED00E008B5084B08483822002908BFC7
:10A22000194628F06DFF064B002283F83F20054AAF
:10A230005A60FEF731FD00BF3B64050098FF002027
:10A2400090FF002004870EFEF0B5002485B0204664
:10A2500001341BF0C1FF202CF9D1744B744E5A69A4
:10A2600042F400725A615A6942F010025A617F2327
:10A27000B3600023C6F81832C6E900336D4AC6F849
:10A280001432012386F820326B4B136003231168CC
:10A29000481C10600B70013BDBB2FF2BF7D1674B02
:10A2A000674D684900245C60C3E904441C609C60FD
:10A2B000DC600123C5E90434634B1471AB61C5E96B
:10A2C0000B43624B624AEA61C5E90D344FF40072F8
:10A2D000AC622C64EC636C64E81D2A626C6228F04A
:10A2E00005FE5C49284628F001FE2023AB71D6F814
:10A2F00010321A46002A55D15749584A0C71002B82
:10A300005CD1C6F810220B60554B186801244FF43D
:10A31000007322464C718068524928F0BDFF5249B3
:10A320002046FEF7E5FE51481BF0BAFB504B1B7868
:10A33000002B48D106F054FC08B106F0F9FC4FF0B0
:10A3400080430022C3F8042101229A60D3F804213B
:10A35000002AFBD0D3F818254649474E0120FEF7C6
:10A36000C7FE05F081FF454B454A1860454B1A6012
:10A37000327852BB01233370434BC3F80C254FF4A2
:10A380007022C3F804250221102006F0EFFB3F4B9A
:10A390004FF480321A603478012C1AD03C498A205C
:10A3A000FDF748FED26811798C4201D01268A1E70E
:10A3B00001340A2C9DD137494120F1E7DB68186848
:10A3C00008601A60A0E78520B7E7082006F0B0FC17
:10A3D000E1E7314D00230DF10F008DF80F3023F030
:10A3E00051FD2B78072B13D82C4A13705A1C2A7056
:10A3F000254AD2F808159C400C43C2F808459DF840
:10A400000F0006F011FC2B7853B921497220C7E7E1
:10A410009DF80F0006F008FC042006F089FCF2E726
:10A420003578012D3CD01A497320B9E700ED00E0E2
:10A43000543B0020302E00202C2E0020382E0020EF
:10A440008C3800204C640500436405008C360020E5
:10A450008C36002050640500A82B0020346D0600C7
:10A46000182C0020BC38002057640500F881050036
:10A4700078360020726405007036002074360020A3
:10A4800061DE02006C3600200000014000E100E0C7
:10A490008C6405005D660500713600207236002070
:10A4A000674B6849C3F804531D6002233370284684
:10A4B000654EFEF71DFE052333704FF08043634960
:10A4C000D3F8204528462246FEF712FE604B04F0E2
:10A4D0007F021A7014F0FF0318BF337033789C4268
:10A4E0005C4C15D05C490120FEF702FE32785B49D6
:10A4F0000120FEF7FDFDFF2101200DF071FA21780A
:10A5000001200DF06BFA564902460120FEF7F0FDDE
:10A510005449002501202570FEF7EAFD4FF08043E5
:10A520005149D3F81C250120FEF7E2FD4F4B1D6079
:10A530004F4B00200021C3E900012820FCF78CFBD1
:10A54000044660B1FEF7ACFC4A4B23604FF48062D6
:10A550000123C4E90623484B25626362656126F046
:10A5600097FE02462046454C4FF0FF33012125F06F
:10A5700071FBD4E900014FF47A7200232BF092FCB6
:10A5800002460B4601203E49FEF7B2FDD4E90031F8
:10A59000082200255D40013A4FEA132343EA016394
:10A5A000EDB24FEA1121F5D1364E37493378374FA6
:10A5B0002A460120FEF79CFDD4E90032134302D065
:10A5C0003378AB422AD032490120FEF791FD0022B8
:10A5D0000023C4E900237B23337017A3D3E90023AE
:10A5E0002C490120C7E900230124FEF781FD2A49F7
:10A5F0004FF480620120FEF77BFD00234FF4806260
:10A60000264900942648FCF7FDF920462549FEF727
:10A610006FFD26F0F9FD002005B0F0BD22490120B4
:10A62000FEF766FDD4E9001440F634000A1844F140
:10A630000003D5E7AFF3008000B0CAA24A010000D2
:10A6400000000140D164050069360020E464050083
:10A65000A62B002068360020F96405002E65050051
:10A6600040650500596505006E650500983D0020B0
:10A67000903D00208A650500017E020088FF0020D1
:10A680008F65050080FF0020AB650500803D002040
:10A69000BF650500066605001B660500506F0500D6
:10A6A00031AA02004C660500ED6505007047704751
:10A6B0000CB4F0B597B01CAB0D46124953F8042BFF
:10A6C0000C68009302AE50210746304628F042FC49
:10A6D0000D490196012301AA0420FDF7C9FD54B1DB
:10A6E000237C022B07D15FB9E37E23B13246294692
:10A6F000204614F0EDFC17B0BDE8F04002B0704702
:10A70000237FF2E7602F0020B666050000000000FE
:10A710002DE9F04F2DED028B0C0CB7B04C49804663
:10A72000154601202246FEF7E3FC43F602339C4225
:10A7300040F083802846FCF745FC43A7D7E9006733
:10A740009FED448ADFF824A1054600F104090024A6
:10A75000AB889C4204D337B0BDEC028BBDE8F08FD0
:10A7600021464846FCF748FAD0ED027A90ED007A8F
:10A7700067EE887A27EE087AFDEEE77A8346CDED1C
:10A78000017AD0ED017A67EE887A5246FDEEE77ADB
:10A790000321CDED007AFDEEC77A012017EE903A45
:10A7A000FFF786FFDBED010A9BED000A27F0AAFA0E
:10A7B000DFED297A60EE277A17EE900A2BF058F831
:10A7C00032463B462BF0D6F92BF044FB0FFA80FBC8
:10A7D000224A5B4603210120FFF76AFF204B2149F3
:10A7E0001A68342041F822B0013292FBF0FC00FBE1
:10A7F0001C221A609AB9D02202A828F031FC0A2241
:10A8000036A902A823F0AAFA12A902A823F085FA11
:10A8100011A92522013A04D11C9BC8F84430013407
:10A8200096E751F8040F0B4653F804CC604501DB62
:10A830001860EFE743F804C9F6E70B48C52123F099
:10A8400005FB00BFAFF30080182D4454FB210940E5
:10A85000BF66050000007A44000034431B67050012
:10A8600058EC002088EB0020995F0500F166050098
:10A87000A0F10800FFF74CBFF0B587B01F460123D9
:10A8800004460D4603930C99074B029304A8164601
:10A8900024F0FEFF02AB009332463B462946204699
:10A8A000FEF7EEFE07B0F0BDD08205002DE9F04FB7
:10A8B00043F2057187B0B1EB124F0446109849D1AD
:10A8C000C82B05AE28D1FCF77DFBB0F800804568A9
:10A8D000B8F1000F20D0DFF898B0DFF888A0DFF8DB
:10A8E000949000272B7B1BB91C48352123F0AEFA2E
:10A8F0002A69039259460120FEF7FAFB039A059252
:10A90000009653460322494620460137FFF7B4FF1D
:10A91000B84505F11405E5D8114B00930322114BFE
:10A9200011492046FEF7ACFE0223314620468DF841
:10A930001430FCF78FF80323314620468DF814308D
:10A94000FCF788F809490522204607B0BDE8F04F1A
:10A95000FEF7F0BF07B0BDE8F08F00BF906F0500B5
:10A960005CEC002064EC00200F0001371F00000A9F
:10A97000386705000F000637037C013BDBB2037428
:10A9800013B903685B68184770472DE9FF41437CA2
:10A99000012B05461FD003681B6B9847C8281BD1A5
:10A9A000EE6801236B74B06804F0F8FD06F1140141
:10A9B00002A815F0BCFB06F10C080027029BBDF8AD
:10A9C0000C20DB899A420AD1B06867B304F0F2FD2B
:10A9D000304615F0F7FAC82004B0BDE8F08102A8AF
:10A9E00003F0C3FA90F827300446C3B9C36A9D4206
:10A9F00015D1837B012BDFB210D1FDF72EFA022394
:10AA0000A373E37B206143F01003E3733A4601AB89
:10AA1000214640468DF8047015F00AFC012702A873
:10AA200024F071FACAE704F0C5FDD4E77047704717
:10AA30002DE980489849DDB00120FEF759FB974B7E
:10AA40000124C8201C70FDF74FFA95480268224087
:10AA50002ED19449944B0B603C21D980A02159817F
:10AA60004FF44871998140F2FF31D9814FF6FF715F
:10AA700019839985A3F84010FF211A615A621A8040
:10AA80005A809A801A81C3F813205A839A83DA83F2
:10AA90001A845A84C3F82720DA851A865A869A8639
:10AAA000DA86A3F84210A3F8482083F84A2004600D
:10AAB0007E490B6813F0010307D17D4AC2E90033D8
:10AAC00093607C4B1A6001230B607B490B6813F089
:10AAD000010308D1794A7A4810607A48C2E9013303
:10AAE000012302600B6005F0BDF84FF4FA237649AC
:10AAF000D3F8009007460120FEF7FAFA4FF08041A4
:10AB0000D1F80026D1F80436D1F81006D1F8141681
:10AB1000CDE900016D490120FEF7EAFA6C481AF010
:10AB2000BFFF1F201AF0DAFD6A4B1B78EBB906F065
:10AB300007FF02466849694D0120FEF7D9FA022352
:10AB400000936749674800234FF4DC72FBF75AFF14
:10AB500000242B786BB90220FDF7C6F9632C06D1CF
:10AB6000614840F26F1123F071F90822E2E70134E5
:10AB7000EFE762005D490120FEF7BAFA5C49012067
:10AB8000FEF7B6FA5B485C4B0360002117F0ECFF60
:10AB9000059020B159494FF4AA70FDF74BFA05F022
:10ABA00063FB574B186018B954494FF4AC70F4E785
:10ABB00005F05AFB534B186018B950494FF4AE706A
:10ABC000EBE7514E3378F3B905F04EFB4F4D28605B
:10ABD00005F04AFB4E4B4FF4FA241860286805F044
:10ABE000A5FB22684B4B9A42224631D14A490120AB
:10ABF000FEF77EFA286805F01BFD012333704749F4
:10AC00000120FEF775FA4648464C1AF049FF0DA898
:10AC100005F04EF84FF0FF3005F04CF894F84E3048
:10AC2000002B40F0A48004F12702FF210133DBB2A6
:10AC3000202B02F8011FF9D13A4A00234FF0FF31CF
:10AC400002F14000072B42F8041B20D80133F9E73A
:10AC500035490120FEF74CFA344B059A1A8005F06D
:10AC600001F860B932490120FEF742FA3149204625
:10AC70001BF05AF830490120FEF73AFABFE72F4996
:10AC80000120FEF735FA059803F07CF8F2E7092B6E
:10AC9000C15455D00923D5E7596705009C3D0020D4
:10ACA00064360020043100201836002014360020BD
:10ACB000083600206831002004360020F8350020D6
:10ACC000487F050000310020796705008F67050087
:10ACD00058800500383B0020CA6705006C31002011
:10ACE000E167050015160300E8670500F067050039
:10ACF0000A680500E82C0020807F05001868050020
:10AD000004300020003000201430002010300020DB
:10AD10000C3000206516775E4A6805000E69050054
:10AD200050800500183000206C68050008300020B5
:10AD30008B68050085DD0200D4680500AF6805005A
:10AD400004220021544828F0C3FE544BE02283F82B
:10AD5000062340221A604FF4BE701BF031FC504BAA
:10AD60004FF00042C3F80423012384F84E3000233F
:10AD70004C4A194642F823100133202BFAD14A4994
:10AD80004A4D0120FEF7B4F949481AF089FE4948B6
:10AD90001AF086FE48481AF083FE48481AF080FEF2
:10ADA0002C781CB140F225214548DCE6FDF71AF964
:10ADB000DFF82881C8F8000010B940F22921F3E734
:10ADC000012021F09FFD0126D8F80000ADF8884051
:10ADD0002E70FEF77BF93B4B1C780DF1880B6CB1A4
:10ADE000D8F80000FDF716F937490120FEF780F981
:10ADF00004F0CCFE002875D1FDF74EFF30461BF065
:10AE000009F8DFF8DCA025461423CDE9016319AB6E
:10AE100000931AF8011B02235A4601201BF04AF93D
:10AE2000A04001342844042CC5B2EDD101201BF010
:10AE300065F8D8F80000254CFDF7ECF80C2D0CD087
:10AE40000D2D12D0012D1ED1214B25704FF4003253
:10AE50001A60204B00221A70C6E71D4B26704FF473
:10AE600080221A601B4B1E70BEE7194A0223237012
:10AE70004FF400331360174B002119704FF48021F9
:10AE800051605E70B0E714492A460120FEF730F9A0
:10AE900000232370A8E700BF6230002000E100E03B
:10AEA000006000406830002024690500FC3000206C
:10AEB0001880050008800500D07F0500B87F0500D8
:10AEC00034690500F53000205C690500F43000208D
:10AED000EC300020E83000203D690500F83000200B
:10AEE000A07F050004F052FE002885D00D9C9CBB7D
:10AEF00016201AF0FCFBC4490120FEF7F9F87D2367
:10AF00005846239322948DF88E40ADF890408DF8EA
:10AF10008F408DF892400BF069F922462146584641
:10AF20000BF0E6FB23F037FD80B1B849B84C0120A7
:10AF3000FEF7DEF840F6B83544F001044FF47A40ED
:10AF4000A04723F028FD002840F0308358460BF03E
:10AF5000DDF958460BF08CF919AC20460CF014FDC5
:10AF6000AC49AD4AAD4E002818BF0A462346AC494D
:10AF70000120FEF7BDF83378022B00F03C835846E1
:10AF80000CF0ECFC0546002840F035830146112208
:10AF9000A44828F09DFDA8465B4613F801AB069334
:10AFA000504627F051FF069B9E4A10B9BAF1000F98
:10AFB00002D102F805A0013508F10108B8F10C0F23
:10AFC000EBD13378022B0ED02021584623F04CFDD4
:10AFD00003229549584628F081F8584628F054F93C
:10AFE000924B934A1A608F4A92490120FEF780F8EB
:10AFF0000122914B914923601046A123FEF778F876
:10B000000C220021584628F063FD012522688DF8A6
:10B0100088504FF47A73594620208DF88A50ADF845
:10B020008C3005F0F9F8024618B185492846FEF73C
:10B030005FF80C220021584628F04AFD01252268BD
:10B040008DF88950002359464020ADF88A3005F02C
:10B05000E3F8024618B17B492846FEF749F80C226E
:10B060000021584628F034FD012522688DF88850CB
:10B07000A12359462320ADF88A3005F0CDF80246C9
:10B0800018B171492846FEF733F80C2200215846C2
:10B0900028F01EFD22680623594601208DF88830CD
:10B0A00005F0BAF8024618B168490120FEF720F809
:10B0B0000C220021584628F00BFD22684FF4ED6366
:10B0C0005946A120229305F0A7F8024618B160491D
:10B0D0000120FEF70DF80C220021584628F0F8FC5C
:10B0E0009DF88830226843F001035946A0208DF86E
:10B0F000883005F091F8054638B1024655490120DF
:10B10000FDF7F6FF284605F013FE204605F08AFD00
:10B11000002840F07982504B01221A7010AE1123A2
:10B12000002133701C2223A8229128F0D1FC204654
:10B1300022F0C0FC20B93E491322204627F0E0FF50
:10B14000DFF8E080454ACDF800801F2123465846AD
:10B1500028F056F9584628F097F8594682B23046FA
:10B1600005F058F808B105F0E3FD9DF850300DF1F9
:10B1700051006FF347038DF8503004F0C1FB28B144
:10B1800014A805F043F808B105F0D2FD344B354959
:10B190001D680120FDF7ACFF334B186810B1036840
:10B1A0001B689847022300934FF448724FF4C8730A
:10B1B0000C214FF6FF7022F0A5FCAB7BFF2B02D1D8
:10B1C000284604F021FE284604F08AFD274B1D681E
:10B1D0004FF4FE235A46D3F81CA004210023092073
:10B1E000229305F05BFB229B9A4504D0C5F808A08A
:10B1F000284605F0D3F91E4D40220021584628F07C
:10B2000067FC284636E000BF6C6905007E690500D2
:10B21000B07F05004E6705005367050069360020C2
:10B22000086A05006D310020216A0500742B00209A
:10B23000256A05002F6A0500702B00203A6A050078
:10B24000556A05009B6A0500E76A05002E6B05003C
:10B250007A6B0500CB6B0500FD3000201E6C0500ED
:10B2600004310020266C05000031002068310020E8
:10B270003C6C050028F008F8ADF88800BD4823951F
:10B2800028F002F841F60A03ADF89800BA4ACDF862
:10B290009C80012014A98DF8C4008DF85200ADF8EF
:10B2A000503006F0D7FA002840F0BD81BDF8882064
:10B2B000002A40F0AC81BDF890205AB1AF4B00930A
:10B2C00025999DF8C43042F6242006F0C5FA0028DE
:10B2D00040F0A981BDF898205AB1A94B0093279955
:10B2E0009DF8C43042F6252006F0B6FA002840F05A
:10B2F0009A81BDF8A0205AB1A24B009329999DF8DC
:10B30000C43042F6272006F0A7FA002840F08B81CF
:10B31000BDF8A8205AB19C4B00932B999DF8C430DE
:10B3200042F6262006F098FA002840F07C81BDF80D
:10B33000B0205AB1954B00932D999DF8C43042F638
:10B34000282006F089FA002840F06D812E9BEBB191
:10B350001A6822701A68120A62705A88A270DA7823
:10B36000E2705A6822719B6863711A0A1B0CE371C0
:10B37000874BA2712146009308229DF8C43042F603
:10B38000232006F069FA002840F04D812F9961B121
:10B39000804B0A79009309689DF8C43042F62A2050
:10B3A00006F05AFA002840F03E81309BD3B11A785B
:10B3B00022705A886270120AA2709A88E270120A89
:10B3C0002271DB8863711B0AA371734B0093072200
:10B3D0009DF8C430214642F6502006F03DFA002880
:10B3E00040F02181DFF8C0A110220021304628F072
:10B3F0006FFB6A4B6A4A336001200021CAF80030B3
:10B4000040F2FF13C6E90212AAF81030307141F67B
:10B410000F030AF104020EA98DF83A00ADF8383096
:10B4200006F012FA0546002840F09E80337B8DF826
:10B430002B3001462022584628F04AFB42F61923B9
:10B44000ADF888300DF12B084FF00113CDE923380A
:10B450009AF811309DF89520BAF804001B0143F0CA
:10B46000020322F0120203F0120313438DF8953009
:10B47000B37B8DF89B300AF10602737B8DF899300F
:10B48000594606F03CF9054600286DD1B368002BFB
:10B4900000F0CF801A788DF82C205B788DF82D3055
:10B4A0000146142214A828F013FB42F60813ADF845
:10B4B0005030F37B8DF85630294602230DF12C08CD
:10B4C00014222046ADF85A30ADF85E30CDF86080D9
:10B4D000BAF8068028F0FCFA9DF852209DF8560034
:10B4E000012A38BF01220FAB0CAD236029468DF82D
:10B4F0003E20BDF85020ADF83C2006F0EBF89DF85A
:10B5000057000DF1310106F0E5F89DF858209DF83F
:10B5100055306560013202F0030243EA42039DF8B0
:10B52000532043EAC2039DF8542043EA02139DF8D6
:10B53000322003F01F0322F01F0213438DF8323034
:10B54000BDF85A302381BDF85C306381BDF85E30B0
:10B55000A381189B23610AF10E022146404606F0A2
:10B56000B7F80546002866D00E492A460120FDF7A7
:10B57000BFFD60E06D3100205031002040310020DF
:10B5800038310020303100202831002020310020C7
:10B59000183100201031002008310020A1D1020014
:10B5A0004D010101636C050054310020013D7FF421
:10B5B000C5AC62490120FDF79BFD0A2501263146F5
:10B5C0001F201AF047F986F001064FF064084FF487
:10B5D0007A40A047B8F10108F9D123F0DCF938B975
:10B5E00057490120FDF784FD05F0ACFB04F04EFB4C
:10B5F000013DE4D1AAE44FF08053524A1B6E5248F9
:10B60000102127F0FDFEDCE405F092FB86E54F4BB0
:10B61000009323999DF8C43042F6292006F01CF9C6
:10B6200000283FF448AE024649490120FDF760FD7D
:10B63000D8E6AAF80E304749DFF838810120FDF737
:10B6400057FD1F201AF053F8434A106851682346EB
:10B6500003C3002314212046CDE91B331D9323F09F
:10B6600003FA01210FAA08468DF83C7005F016F97F
:10B67000A9EB080253425341054600939DF83C2034
:10B68000364903460120FDF733FD002F51D09DF8C8
:10B690003C3023B101210FAA084605F0D7F91C223E
:10B6A0000021584628F014FA012727498DF8A17087
:10B6B000584623F009FD9DF83C3029498DF8A0300B
:10B6C0005A4638462794FDF713FD264A264D13683F
:10B6D00013F0010F16D164232B806B80C823AB803D
:10B6E0002023EB800423AB81EB812B826B834023EF
:10B6F0000821AB830223E982EB8328218823298355
:10B700002B841760194BAA8D1A8006F065FC4564DE
:10B710000446FCF773FC04F10803606159461846BF
:10B720000693FCF7F1F9636933BB1148DB21FFF79E
:10B730001ABAC145B3D0002DB1D1ABE7B469050049
:10B74000F8690500186A05006D31002048310020B5
:10B75000436C0500836C0500BC8405009A6C0500F1
:10B76000CF6C050080310020782B0020EC350020C4
:10B770008A5F05006516775EB64FB74BD5F8162081
:10B78000B64938464FF0000940F8043B23F0DAF997
:10B7900007F14C00D5F81A20B14923F0D3F907F18D
:10B7A0009400D5F81E20AF4923F0CCF96B8CADF88E
:10B7B00050304FF40073ADF8523007F1DC00149AAA
:10B7C000A94923F0BFF9A94AA949149207F5927033
:10B7D00023F0B8F9AB8CADF850304FF40273ADF8EC
:10B7E000523007F5B670149AA24923F0ABF9A24B78
:10B7F0006762A24FE361C3E90099C3E9029904F1CA
:10B8000014033B609E4B9F4AB5F808809E49C7E9E8
:10B8100001394FF004133B613B4607F1140043F834
:10B820000C2FC8F30E0200933B1D23F06BF94FEA77
:10B830008800FBF711FA78641FFA89F24245C0F0DC
:10B84000DF80DFF8B482914BC8F80C304346904A51
:10B8500043F8082FDFF8289227620027C8F80090E5
:10B86000C8F80470009308F110004346AA8989497A
:10B8700023F048F9C4F82880DFF88082864BC8F8A6
:10B8800000304FF0041AC8F804A0CDF8008008F189
:10B890000800824B6A88824923F034F9C4F8348066
:10B8A000DFF85C827F4BC8F80030C8F804A0CDF800
:10B8B000008008F10800794B2A887B4923F022F99F
:10B8C000C4F83880DFF83C82784BC8F80C30434627
:10B8D000774A43F8082FC8E90097009308F1100051
:10B8E0004346AA88734923F00DF9C4F83C80DFF879
:10B8F0001882714BC8F80C304346704A43F8082F41
:10B90000C8E900970093EA886D49434608F11000A2
:10B9100023F0F8F86B4BC4F84080DFF8F081C8E9F9
:10B920000034FCF76BFB684BC8F818304346674A95
:10B9300043F8142FC8E90209C8F810700093EA8987
:10B94000634908F10C0308F11C0023F0DBF808F14F
:10B950000803C8E91337069BC8F864305D4B5E499D
:10B96000EA7CC8F87070C8E91A375C4BC8F87C30BC
:10B9700043464FF6FF7943F8781FC8E91577C8E9C1
:10B9800017775749C8F8749008F18000009308F1C0
:10B99000680323F0B7F8297DC8F8B070084606F0B0
:10B9A00087FAC8F8BE70EB8CC8F8B83098F8C13088
:10B9B000A97C2A8DC8F8B40043F00203C8F8C2700D
:10B9C00088F8BF10A8F8C220414608F1BC0208F16F
:10B9D000C80088F8C130A8F8C670A8F8BC9024F058
:10B9E00029FAD8F8B430C8F81C7188F82471C8F85E
:10B9F0002071002B40F08C803A489F21FFF7B3B8AC
:10BA00007B6C07932820FBF727F94FEA890A0890F7
:10BA1000E0B1FDF745FA0898334B0360334B4362BE
:10BA20000122079BC0F82090C0E906220022426153
:10BA300043F829007A6C52F80A2009F10109002A1A
:10BA40007FF4FAAE2A483D21FFF78DB829480D2131
:10BA5000FFF789B838340020CC80050020DB0500D2
:10BA600004660500D3DA0500E46C05000200380026
:10BA7000E86C0500F06C050028340020E03300205D
:10BA800070810500E4800500F96C05000C000400DD
:10BA9000F8800500186D05000C8105006433002056
:10BAA000206D0500208105002A6D050006000200BA
:10BAB00034810500326D050018000400488105003E
:10BAC000376D0500B4810500400004005C8105006D
:10BAD000416D05009C810500888105002800040057
